:020000040000FA
:100000000C945D000C9485000C9485000C94850084
:100010000C9485000C9485000C9485000C9485004C
:100020000C9485000C9485000C9485000C9485003C
:100030000C9485000C9485000C9485000C9485002C
:100040000C9435030C9485000C9485000C94850069
:100050000C9485000C9485000C9485000C9485000C
:100060000C9485000C94850000000008000201003B
:100070000003040700000000000000000000000072
:10008000250028002B0000000000240027002A0083
:10009000040404040404040402020202020203032E
:1000A0000303030301020408102040800102040836
:1000B00010200102040810202D0411241FBECFEFD0
:1000C000D8E0DEBFCDBF11E0A0E0B1E0E2EAF8E0A9
:1000D00002C005900D92A435B107D9F721E0A4E53F
:1000E000B1E001C01D92A537B207E1F710E0CDE500
:1000F000D0E004C02197FE010E944904CC35D1070D
:10010000C9F70E947F030C944F040C94000090E008
:10011000FC01EC55FF4F249180579F4FFC018491C7
:10012000882399F090E0880F991FFC01EA57FF4F50
:10013000A591B491FC01E458FF4F859194918FB73C
:10014000F894EC91E22BEC938FBF0895AF92BF929D
:10015000CF92DF92EF92FF920F931F93CF93DF9393
:100160006C017B018B01040F151FEB015E01AE18C2
:10017000BF08C017D10759F06991D601ED91FC91E4
:100180000190F081E02DC6010995892B79F7C50111
:10019000DF91CF911F910F91FF90EF90DF90CF9063
:1001A000BF90AF90089590E0FC01E859FF4F249173
:1001B000FC01EC55FF4F3491FC01E057FF4FE491F7
:1001C000EE23C9F0222339F0233001F1A8F42130C5
:1001D00019F1223029F1F0E0EE0FFF1FE458FF4F34
:1001E000A591B4918FB7F894EC91611126C0309528
:1001F0003E233C938FBF08952730A9F02830C9F0E3
:10020000243049F7809180008F7D03C08091800069
:100210008F7780938000DFCF84B58F7784BDDBCF6D
:1002200084B58F7DFBCF8091B0008F778093B00035
:10023000D2CF8091B0008F7DF9CF3E2BDACF1F93C4
:10024000CF93DF93182FEB010E948700CF3FD1059A
:1002500039F461E0812FDF91CF911F910C94D3008D
:10026000E12FF0E0E859FF4FE491E33039F148F431
:10027000E130B9F0E230E9F0C038D10554F760E080
:10028000E9CFE73029F1E83059F1E430A9F780915E
:100290008000806280938000D0938B00C0938A009E
:1002A00004C084B5806884BDC7BDDF91CF911F9124
:1002B000089584B5806284BDC8BDF7CF8091800069
:1002C000806880938000D0938900C0938800EDCF30
:1002D0008091B00080688093B000C093B300E5CFF8
:1002E0008091B00080628093B000C093B400DDCFF5
:1002F0003FB7F8948091590190915A01A0915B0108
:10030000B0915C0126B5A89B05C02F3F19F001965E
:10031000A11DB11D3FBFBA2FA92F982F8827BC015F
:10032000CD01620F711D811D911D42E0660F771F87
:10033000881F991F4A95D1F708958F929F92AF9287
:10034000BF92CF92DF92EF92FF924B015C010E942D
:1003500078016B017C010E9478016C197D098E097E
:100360009F09683E734081059105A8F321E0821A38
:100370009108A108B10888EEC80E83E0D81EE11CE0
:10038000F11C81149104A104B10429F7FF90EF90AE
:10039000DF90CF90BF90AF909F908F900895089579
:1003A00090E080E00895FC0101900020E9F731978A
:1003B000AF01481B590BBC018DE591E00C94A600E0
:1003C000CF93DF93EC0160E08E810E94D30061E067
:1003D0008E810E94D30060E08E810E94D3008BE862
:1003E00091E00197F1F7DF91CF910895CF92DF92DD
:1003F000EF92FF920F931F93CF93DF936C017C01D9
:1004000087E0E80EF11CD0E0C0E0062F10E0B80154
:100410000C2E02C0759567950A94E2F76170F7019A
:1004200081917F010E94D3002196C430D10579F7D4
:10043000C601DF91CF911F910F91FF90EF90DF9058
:10044000CF900C94E001CF92DF92EF92FF920F9346
:100450001F93CF93DF93EC01F62E642F8C810E94C3
:10046000D3008D818F3F19F060E00E94D3000F2DE3
:1004700010E08F8584FF25C06E0187E0C80ED11C77
:10048000F12CE12CB8010E2C02C0759567950A94E9
:10049000E2F76170F60181916F010E94D300FFEFD6
:1004A000EF1AFF0A88E0E816F10461F7CE01DF9148
:1004B000CF911F910F91FF90EF90DF90CF900C9410
:1004C000E001B80184E0759567958A95E1F7CE0162
:1004D0000E94F6016F2DCE01DF91CF911F910F91F8
:1004E000FF90EF90DF90CF900C94F60140E0682FE2
:1004F0008DE591E00C94230281E00E9476028BE36B
:100500009FE10197F1F70895CF93DF93823029F4AB
:1005100090916C01986090936C018093700110929F
:10052000710180E48093720180E18093730180E522
:1005300080937401809161010E9487008091620123
:100540008F3F11F00E948700809163010E94870015
:10055000CDE5D1E09E012D55314080916C0184FDA7
:100560000AC084E090E02196281739073CF48E8178
:100570000E948700EFCF88E090E0F5CF8BE39DE00D
:100580000197F1F760E0809161010E94D30060E083
:10059000809163010E94D300809162018F3F19F026
:1005A00060E00E94D30080916C0184FD34C063E060
:1005B0008DE591E00E94F601CBE4D6E4CE010197EF
:1005C000F1F763E08DE591E00E94F6012197F1F7E4
:1005D00063E08DE591E00E94F60183E592E00197EA
:1005E000F1F762E08DE591E00E94F60180916C01E7
:1005F00080620E94760284E080936D018CE00E940C
:1006000076020E947C0282E080936E0186E0DF9198
:10061000CF910C94760280620E9476028BE496E47D
:100620000197F1F780916C0180620E94760283E568
:1006300092E00197F1F780916C0180620E9476024E
:10064000D5CF90917001891710F08FEF890FE82FA7
:10065000F0E0E35AFE4F848980680C94760241E012
:100660000E94230281E090E008951F920F920FB63E
:100670000F9211242F933F938F939F93AF93BF9328
:100680008091550190915601A0915701B091580168
:100690003091540123E0230F2D3758F50196A11D09
:1006A000B11D209354018093550190935601A0935E
:1006B0005701B09358018091590190915A01A0912E
:1006C0005B01B0915C010196A11DB11D80935901A0
:1006D00090935A01A0935B01B0935C01BF91AF91DD
:1006E0009F918F913F912F910F900FBE0F901F9070
:1006F000189526E8230F0296A11DB11DD2CF78943C
:1007000084B5826084BD84B5816084BD85B5826016
:1007100085BD85B5816085BD80916E0081608093C7
:100720006E00109281008091810082608093810030
:100730008091810081608093810080918000816040
:10074000809380008091B10084608093B10080919B
:10075000B00081608093B00080917A0084608093C3
:100760007A0080917A00826080937A0080917A008A
:10077000816080937A0080917A00806880937A000B
:100780001092C10089E00E94870082E00E948402EA
:100790000E947C0280E00E9421038CE091E00E9494
:1007A000D30181E00E94210388E191E00E94D301FE
:1007B00064E670E080E090E00E949D010E947C026F
:1007C00000E010E080E00E94210387E291E00E94B7
:1007D000D301C4E6D0E081E00E9421034FE050E065
:1007E00065E371E08DE591E00E94A600BE0189E01D
:1007F0000E941F0165E070E080E090E00E949D0192
:100800002596C43081E0D80731F762E370E080E0DC
:1008100090E00E949D01CFEFD0E081E00E94210393
:100820004DE050E065E471E08DE591E00E94A600A6
:10083000BE0189E00E941F0165E070E080E090E069
:100840000E949D012597CF35D10539F70115110576
:1008500009F4B8CF0E940000B5CFEDE5F1E01382B6
:10086000128284E091E09183808385E084838FEF1E
:10087000858384E0868383E0878382E0808781E0CC
:1008800081871286138614861586168617860C9421
:100890008402EE0FFF1F0590F491E02D0994F89467
:1008A000FFCF000000002F03A600D001CF0141427E
:1008B0004841592053494E474800202031393042A1
:1008C0005443435345303032004C656420496E74C4
:1008D000656E7369747900494E4352454153494EE0
:1008E000472020202020002020204445435245411D
:0608F00053494E470000D1
:107E0000112484B714BE81FFF0D085E080938100F7
:107E100082E08093C00088E18093C10086E0809377
:107E2000C20080E18093C4008EE0C9D0259A86E02C
:107E300020E33CEF91E0309385002093840096BBD3
:107E4000B09BFECF1D9AA8958150A9F7CC24DD24C4
:107E500088248394B5E0AB2EA1E19A2EF3E0BF2EE7
:107E6000A2D0813461F49FD0082FAFD0023811F036
:107E7000013811F484E001C083E08DD089C08234E0
:107E800011F484E103C0853419F485E0A6D080C0E4
:107E9000853579F488D0E82EFF2485D0082F10E0AE
:107EA000102F00270E291F29000F111F8ED06801E7
:107EB0006FC0863521F484E090D080E0DECF843638
:107EC00009F040C070D06FD0082F6DD080E0C81688
:107ED00080E7D80618F4F601B7BEE895C0E0D1E017
:107EE00062D089930C17E1F7F0E0CF16F0E7DF06D8
:107EF00018F0F601B7BEE89568D007B600FCFDCFD4
:107F0000A601A0E0B1E02C9130E011968C91119780
:107F100090E0982F8827822B932B1296FA010C0160
:107F200087BEE89511244E5F5F4FF1E0A038BF0790
:107F300051F7F601A7BEE89507B600FCFDCF97BE46
:107F4000E89526C08437B1F42ED02DD0F82E2BD052
:107F50003CD0F601EF2C8F010F5F1F4F84911BD097
:107F6000EA94F801C1F70894C11CD11CFA94CF0C13
:107F7000D11C0EC0853739F428D08EE10CD085E9AC
:107F80000AD08FE07ACF813511F488E018D01DD067
:107F900080E101D065CF982F8091C00085FFFCCF94
:107FA0009093C60008958091C00087FFFCCF809118
:107FB000C00084FD01C0A8958091C6000895E0E648
:107FC000F0E098E1908380830895EDDF803219F02E
:107FD00088E0F5DFFFCF84E1DECF1F93182FE3DFCA
:107FE0001150E9F7F2DF1F91089580E0E8DFEE27F6
:047FF000FF270994CA
:027FFE00040479
:00000001FF
