:100000000C945D000C9485000C9485000C94850084
:100010000C9485000C9485000C9485000C9485004C
:100020000C9485000C9485000C9485000C9485003C
:100030000C9485000C9485000C9485000C9485002C
:100040000C94F6020C9485000C9485000C948500A9
:100050000C9485000C9485000C9485000C9485000C
:100060000C9485000C9485000000000024002700FB
:100070002A0000000000250028002B0004040404CE
:100080000404040402020202020203030303030342
:10009000010204081020408001020408102001021F
:1000A00004081020000000080002010000030407FB
:1000B0000000000000000000E20311241FBECFEF8B
:1000C000D8E0DEBFCDBF11E0A0E0B1E0E0E1F8E0B4
:1000D00002C005900D92A633B107D9F721E0A6E33F
:1000E000B1E001C01D92A935B207E1F710E0CDE5FE
:1000F000D0E004C02197FE010E940004CC35D10756
:10010000C9F70E9440030C9406040C940000AF92BF
:10011000BF92CF92DF92EF92FF920F931F93CF93F4
:10012000DF936C017B018B01040F151FEB015E0156
:10013000AE18BF08C017D10759F06991D601ED91EB
:10014000FC910190F081E02DC6010995892B79F78A
:10015000C501DF91CF911F910F91FF90EF90DF903C
:10016000CF90BF90AF90089590E0FC01EC55FF4F09
:100170002491FC01E057FF4F3491FC01E458FF4FFC
:10018000E491EE23C9F0222339F0233001F1A8F4E1
:10019000213019F1223029F1F0E0EE0FFF1FEE5867
:1001A000FF4FA591B4918FB7F894EC91611126C0DF
:1001B00030953E233C938FBF08952730A9F0283017
:1001C000C9F0243049F7809180008F7D03C0809171
:1001D00080008F7780938000DFCF84B58F7784BDD8
:1001E000DBCF84B58F7DFBCF8091B0008F7780937C
:1001F000B000D2CF8091B0008F7DF9CF3E2BDACF07
:10020000CF93DF9390E0FC01E057FF4F2491845897
:100210009F4FFC0184918823D1F090E0880F991FB3
:10022000FC01E859FF4FA591B491FC01EE58FF4F36
:10023000C591D49161110EC09FB7F8948C91E22FB3
:10024000E0958E238C932881E223E8839FBFDF9182
:10025000CF9108958FB7F894EC91E22BEC938FBF78
:10026000F6CF3FB7F89480913B0190913C01A0916B
:100270003D01B0913E0126B5A89B05C02F3F19F066
:100280000196A11DB11D3FBFBA2FA92F982F882716
:10029000BC01CD01620F711D811D911D42E0660FF1
:1002A000771F881F991F4A95D1F708958F929F92C3
:1002B000AF92BF92CF92DF92EF92FF920E943101F4
:1002C0004B015C0184E6C82ED12CE12CF12C0E945C
:1002D0003101681979098A099B09683E73408105D3
:1002E0009105A8F321E0C21AD108E108F10888EECF
:1002F000880E83E0981EA11CB11CC114D104E10436
:10030000F10429F7FF90EF90DF90CF90BF90AF906E
:100310009F908F900895089590E080E00895FC01EB
:1003200001900020E9F73197AF01481B590BBC0140
:1003300081E491E00C948700CF93DF93EC0160E0BF
:100340008E810E94B40061E08E810E94B40060E062
:100350008E810E94B4008BE891E00197F1F7DF9164
:10036000CF910895CF92DF92EF92FF920F931F9358
:10037000CF93DF936C017C0187E0E80EF11CD0E0A5
:10038000C0E0062F10E0B8010C2E02C075956795ED
:100390000A94E2F76170F70181917F010E94B40035
:1003A0002196C430D10579F7C601DF91CF911F9115
:1003B0000F91FF90EF90DF90CF900C949C01CF9223
:1003C000DF92EF92FF920F931F93CF93DF93EC0195
:1003D000F62E642F8C810E94B4008D818F3F19F01E
:1003E00060E00E94B4000F2D10E08F8584FF25C0CF
:1003F0006E0187E0C80ED11CF12CE12CB8010E2C47
:1004000002C0759567950A94E2F76170F6018191D3
:100410006F010E94B400FFEFEF1AFF0A88E0E816B0
:10042000F10461F7CE01DF91CF911F910F91FF9001
:10043000EF90DF90CF900C949C01B80184E075950B
:1004400067958A95E1F7CE010E94B2016F2DCE012A
:10045000DF91CF911F910F91FF90EF90DF90CF90A0
:100460000C94B20140E0682F81E491E00C94DF012C
:1004700081E00E9432028BE39FE10197F1F708953A
:10048000CF93DF93823029F490915001986090933C
:100490005001809354011092550180E480935601DD
:1004A00080E18093570180E58093580161E080915D
:1004B00045010E940001809146018F3F19F061E0E3
:1004C0000E94000161E0809147010E940001C1E4A7
:1004D000D1E09E01215431408091500184FD0BC038
:1004E00084E090E021962817390744F461E08E817A
:1004F0000E940001EECF88E090E0F4CF8BE39DE016
:100500000197F1F760E0809145010E94B40060E03E
:10051000809147010E94B400809146018F3F19F0FD
:1005200060E00E94B4008091500184FD34C063E01B
:1005300081E491E00E94B201CBE4D6E4CE010197C0
:10054000F1F763E081E491E00E94B2012197F1F7B5
:1005500063E081E491E00E94B20183E592E00197BB
:10056000F1F762E081E491E00E94B20180915001D4
:1005700080620E94320284E0809351018CE00E94EC
:1005800032020E94380282E08093520186E0DF91BD
:10059000CF910C94320280620E9432028BE496E486
:1005A0000197F1F78091500180620E94320283E549
:1005B00092E00197F1F78091500180620E9432022F
:1005C000D5CF90915401691710F06FEF690FE62FA6
:1005D000F0E0EF5BFE4F9489890F80680C94320243
:1005E00041E00E94DF0181E090E008951F920F92A8
:1005F0000FB60F9211242F933F938F939F93AF9336
:10060000BF938091370190913801A0913901B09149
:100610003A013091360123E0230F2D3758F501962A
:10062000A11DB11D209336018093370190933801AD
:10063000A0933901B0933A0180913B0190913C0124
:10064000A0913D01B0913E010196A11DB11D809385
:100650003B0190933C01A0933D01B0933E01BF91BB
:10066000AF919F918F913F912F910F900FBE0F905F
:100670001F90189526E8230F0296A11DB11DD2CF19
:10068000789484B5826084BD84B5816084BD85B56D
:10069000826085BD85B5816085BD80916E00816079
:1006A00080936E001092810080918100826080931F
:1006B0008100809181008160809381008091800021
:1006C0008160809380008091B10084608093B1004C
:1006D0008091B00081608093B00080917A00846046
:1006E00080937A0080917A00826080937A00809172
:1006F0007A00816080937A0080917A00806880938C
:100700007A001092C10061E080E00E94000160E088
:100710008EE00E94000182E00E9440020E943802A6
:1007200060E080E00E94E1028CE091E00E948F0195
:1007300061E080E00E94E10288E191E00E948F0187
:100740000E9456010E94380210E480E0E82E80E00A
:10075000F82E10937C0080917A00806480937A0058
:1007600080917A0086FDFCCF80917800C09179005D
:10077000DC2FC82FD0934001C0933F010E94380264
:10078000C536D105A4F061E080E00E94B40061E0CC
:1007900085E00E94E10287E291E00E948F010E94C1
:1007A0005601E114F104A9F20E940000D2CF60E0EA
:1007B00080E00E94B40061E085E00E94E1028EE2E8
:1007C00091E0EBCFE1E4F1E01382128284E091E06A
:1007D000918380838DE084838FEF85838CE0868393
:1007E00088E0878389E080878AE081878BE0828741
:1007F0001386148615861686178681E00C944002AF
:10080000EE0FFF1F0590F491E02D0994F894FFCFAF
:1008100000000000F00287008C018B01414248413A
:10082000592053494E474800202031393042544323
:10083000435345303032004C4544204F4E004C4528
:0608400044204F46460073
:00000001FF
