:100000000C945D000C9485000C9485000C94850084
:100010000C9485000C9485000C9485000C9485004C
:100020000C9485000C9485000C9485000C9485003C
:100030000C9485000C9485000C9485000C9485002C
:100040000C94C4020C9485000C9485000C948500DB
:100050000C9485000C9485000C9485000C9485000C
:100060000C9485000C94850000000008000201003B
:100070000003040700000000000000000000000072
:10008000250028002B0000000000240027002A0083
:10009000040404040404040402020202020203032E
:1000A0000303030301020408102040800102040836
:1000B0001020010204081020980311241FBECFEF66
:1000C000D8E0DEBFCDBF11E0A0E0B1E0ECE7F7E0A3
:1000D00002C005900D92AC32B107D9F721E0ACE235
:1000E000B1E001C01D92AD34B207E1F710E0CDE5FB
:1000F000D0E004C02197FE010E94B603CC35D107A1
:10010000C9F70E940E030C94BC030C94000090E00D
:10011000FC01EC55FF4F249180579F4FFC018491C7
:10012000882399F090E0880F991FFC01EA57FF4F50
:10013000A591B491FC01E458FF4F859194918FB73C
:10014000F894EC91E22BEC938FBF0895AF92BF929D
:10015000CF92DF92EF92FF920F931F93CF93DF9393
:100160006C017B018B01040F151FEB015E01AE18C2
:10017000BF08C017D10759F06991D601ED91FC91E4
:100180000190F081E02DC6010995892B79F7C50111
:10019000DF91CF911F910F91FF90EF90DF90CF9063
:1001A000BF90AF90089590E0FC01E859FF4F249173
:1001B000FC01EC55FF4F3491FC01E057FF4FE491F7
:1001C000EE23C9F0222339F0233001F1A8F42130C5
:1001D00019F1223029F1F0E0EE0FFF1FE458FF4F34
:1001E000A591B4918FB7F894EC91611126C0309528
:1001F0003E233C938FBF08952730A9F02830C9F0E3
:10020000243049F7809180008F7D03C08091800069
:100210008F7780938000DFCF84B58F7784BDDBCF6D
:1002200084B58F7DFBCF8091B0008F778093B00035
:10023000D2CF8091B0008F7DF9CF3E2BDACF3FB780
:10024000F8948091310190913201A0913301B091E5
:10025000340126B5A89B05C02F3F19F00196A11DBA
:10026000B11D3FBFBA2FA92F982F8827BC01CD0100
:10027000620F711D811D911D42E0660F771F881F5F
:10028000991F4A95D1F708958F929F92AF92BF928E
:10029000CF92DF92EF92FF920E941F014B015C010F
:1002A00084E6C82ED12CE12CF12C0E941F01681984
:1002B00079098A099B09683E734081059105A8F375
:1002C00021E0C21AD108E108F10888EE880E83E027
:1002D000981EA11CB11CC114D104E104F10429F73A
:1002E000FF90EF90DF90CF90BF90AF909F908F9056
:1002F0000895089590E080E00895CF93DF93EC0196
:1003000060E08E810E94D30061E08E810E94D30064
:1003100060E08E810E94D3008BE891E00197F1F7B5
:10032000DF91CF910895CF92DF92EF92FF920F93DA
:100330001F93CF93DF936C017C0187E0E80EF11CE3
:10034000D0E0C0E0062F10E0B8010C2E02C0759579
:1003500067950A94E2F76170F70181917F010E942D
:10036000D3002196C430D10579F7C601DF91CF9132
:100370001F910F91FF90EF90DF90CF900C947D0133
:10038000CF92DF92EF92FF920F931F93CF93DF9361
:10039000EC01F62E642F8C810E94D3008D818F3F5B
:1003A00019F060E00E94D3000F2D10E08F8584FFCC
:1003B00025C06E0187E0C80ED11CF12CE12CB801DC
:1003C0000E2C02C0759567950A94E2F76170F601EC
:1003D00081916F010E94D300FFEFEF1AFF0A88E0BE
:1003E000E816F10461F7CE01DF91CF911F910F91D3
:1003F000FF90EF90DF90CF900C947D01B80184E0E6
:10040000759567958A95E1F7CE010E9493016F2D4E
:10041000CE01DF91CF911F910F91FF90EF90DF9070
:10042000CF900C94930140E0682F85E391E00C9409
:10043000C00181E00E9413028BE39FE10197F1F775
:100440000895CF93DF93823029F49091440198600E
:1004500090934401809348011092490180E4809375
:100460004A0180E180934B0180E580934C018091AB
:1004700039010E94870080913A018F3F11F00E945C
:10048000870080913B010E948700C5E3D1E09E0177
:10049000255331408091440184FD0AC084E090E0FE
:1004A0002196281739073CF48E810E948700EFCFF0
:1004B00088E090E0F5CF8BE39DE00197F1F760E0F5
:1004C000809139010E94D30060E080913B010E943D
:1004D000D30080913A018F3F19F060E00E94D30071
:1004E0008091440184FD34C063E085E391E00E9483
:1004F0009301CBE4D6E4CE010197F1F763E085E305
:1005000091E00E9493012197F1F763E085E391E088
:100510000E94930183E592E00197F1F762E085E3A1
:1005200091E00E9493018091440180620E94130235
:1005300084E0809345018CE00E9413020E9419021E
:1005400082E08093460186E0DF91CF910C94130204
:1005500080620E9413028BE496E40197F1F7809188
:10056000440180620E94130283E592E00197F1F753
:100570008091440180620E941302D5CF41E00E9425
:10058000C00181E090E008951F920F920FB60F9284
:1005900011242F933F938F939F93AF93BF93809199
:1005A0002D0190912E01A0912F01B0913001309139
:1005B0002C0123E0230F2D3758F50196A11DB11D05
:1005C00020932C0180932D0190932E01A0932F0155
:1005D000B09330018091310190913201A0913301AB
:1005E000B09134010196A11DB11D8093310190930A
:1005F0003201A0933301B0933401BF91AF919F9129
:100600008F913F912F910F900FBE0F901F901895D3
:1006100026E8230F0296A11DB11DD2CF789484B590
:10062000826084BD84B5816084BD85B5826085BDEE
:1006300085B5816085BD80916E00816080936E007C
:10064000109281008091810082608093810080916E
:10065000810081608093810080918000816080931F
:1006600080008091B10084608093B1008091B000DF
:1006700081608093B00080917A00846080937A00DA
:1006800080917A00826080937A0080917A00816004
:1006900080937A0080917A00806880937A0010922B
:1006A000C10082E00E94210248E050E06CE071E06D
:1006B00085E391E00E94A6000E9444010E94190275
:1006C000C0E0D0E0E0914801E23080F5E150F0E098
:1006D000EB5CFE4F848980680E94130243E050E087
:1006E00065E171E085E391E00E94A6000E9444016B
:1006F000E1E0809148018111E0E0E195F0E0EB5C00
:10070000FE4F848980680E94130241E150E069E154
:1007100071E085E391E00E94A6000E9444010E94DE
:100720001902209779F20E940000CCCFE1E0CFCFF0
:10073000E5E3F1E01382128284E091E0918380830B
:100740008DE084838FEF85838CE0868388E08783C8
:1007500089E080878AE081878BE082871386148610
:1007600015861686178681E00C942102EE0FFF1F76
:0C0770000590F491E02D0994F894FFCF5F
:10077C0000000000BE02A6007A01790157656C6387
:10078C006F6D652000686921004D79204E616D65A3
:0C079C002069732041626861792E000022
:00000001FF
